:100000000C9483010C94AB010C94AB010C94AB01E8
:100010000C94AB010C94AB010C94AB010C94AB01B0
:100020000C94AB010C94AB010C946F070C94EC078F
:100030000C94AB010C94AB010C94AB010C94AB0190
:100040000C94AB010C94AB010C94AB010C94AB0180
:100050000C94AB010C94AB010C94AB010C942507F0
:100060000C94AB010C94440A0C941E0A0C94AB0142
:100070000C94AB010C94AB010C94AB010C94AB0150
:100080000C94AB010C94AB010C94AB010C94AB0140
:100090000C94AB010C94AB010C94AB010C94AB0130
:1000A0000C94AB010C94AB010C94AB01080B000257
:1000B0000202000009040000010202000005240001
:1000C0001001052401010104240206052406000193
:1000D0000705810310004009040100020A00000026
:1000E00007050202400000070583024000000403E8
:1000F000090412010002EF0201404F1B06920001A9
:1001000001020301537061726B46756E005370619A
:10011000726B46756E2050726F204D6963726F006E
:10012000446973636F6E6E6563743B20546F6F2018
:100130006D7563682074696D652073696E636520F1
:100140006C617374204E41434B202D2000696E6317
:100150006F6D706C6574652030783543206D657304
:1001600073616765202874696D656F757429004334
:100170006F6D626F206D6F64652072657175657358
:10018000742072656365697665642028307835432C
:10019000206D6573736167652900537472756374AC
:1001A000757265206E6F7420657870656374656420
:1001B00000696E636F6D706C6574652030783443D0
:1001C000206D6573736167650044697361626C6576
:1001D00020636F6D626F206D6F646520726571754D
:1001E000657374207265636569766564202830786C
:1001F0003443206D657373616765290041667465DA
:100200007220776520676F20616761696E20696E73
:10021000206D6F64653A2000686561646572203DF9
:100220003D20307834362043616C6C6261636B2012
:10023000666F72206D6F64653A20003C0941736BF4
:100240006564206D6F64652000696E636F6D706C0E
:100250006574652030783433206D6573736167652C
:1002600000000000002300260029002C002F0000C1
:10027000000000240027002A002D0030004E6F747B
:1002800020436F6E6E6563746564202100436F6E5A
:100290006E6563746564202100000000002500285D
:1002A000002B002E003100040404040403040502A2
:1002B0000202020403020202020606060606060401
:1002C00004020202040404080201104080401020CD
:1002D000408040800802040180402010020110800C
:1002E00010204040200000000200090F000003041D
:1002F00001000C00000000000000000000000000F1
:1003000000000000840A11241FBECFEFDAE0DEBF38
:10031000CDBF23E0A2E7B2E001C01D92A034B20736
:10032000E1F712E0A0E0B1E0ECEAF2E202C00590F1
:100330000D92A237B107D9F711E0C3E8D1E004C0AC
:100340002197FE010E944E11C238D107C9F70E94C1
:10035000E00A0C9454110C94000083E08093E900AF
:100360008091F200882319F08AE38093E8000895D1
:10037000FC0180919A02882311F13FB7F89482E042
:100380008093E9002091F200822F90E01816190660
:1003900014F481E090E0882339F0289844E64093F3
:1003A00099024091F1004083222339F02091F2001C
:1003B000211103C02BE62093E8003FBF08958FEF83
:1003C0009FEF08952FB7F89483E08093E900909110
:1003D000E800892F807295FF04C09091F20080E4BC
:1003E000891B2FBF08958091910281110DC082E079
:1003F00080938D0284E080938E021092900210927E
:100400008F0281E0809391028DE892E008958150FF
:100410008F3008F047C0E82FF0E0EF5EFD4F0C94FE
:100420004E112E023202200226022A0252025202EB
:10043000520235023B023F024302490252024D0280
:10044000809180008F778093800008958091800054
:100450008F7DF9CF80918000877FF5CF84B58F772E
:1004600084BD089584B58F7DFBCF809190008F77F8
:10047000809390000895809190008F7DF9CF8091B6
:100480009000877FF5CF8091C0008F778093C00068
:1004900008958091C0008F7DF9CF8091C200877F41
:1004A0008093C20008951F93CF93DF93282F30E0ED
:1004B000F901EB51FD4F8491F901EA53FD4FD491BD
:1004C000F901E955FD4FC491CC23A9F0162F8111F4
:1004D0000E940702EC2FF0E0EE0FFF1FE756FD4FE2
:1004E000A591B4918FB7F894EC91111108C0D095F3
:1004F000DE23DC938FBFDF91CF911F910895DE2B18
:10050000F8CF3FB7F8948091890290918A02A09128
:100510008B02B0918C0226B5A89B05C02F3F19F025
:100520000196A11DB11D3FBFBA2FA92F982F882773
:10053000BC01CD01620F711D811D911D42E0660F4E
:10054000771F881F991F4A95D1F708958F929F9220
:10055000AF92BF92CF92DF92EF92FF924B015C017C
:100560000E9481026B017C010E9481026C197D094D
:100570008E099F09683E734081059105A8F321E02B
:10058000821A9108A108B10888EEC80E83E0D81E2F
:10059000E11CF11C81149104A104B10429F7FF901E
:1005A000EF90DF90CF90BF90AF909F908F90089585
:1005B0002FB7F8946091850270918602809187022E
:1005C000909188022FBF08950C94AD014091740260
:1005D00050917502209172023091730242175307B5
:1005E000B4F49091E8009570E1F39091E80092FDE9
:1005F00019C08093F1008091740290917502019668
:100600008F739927892B19F48EEF8093E8008091DE
:100610007402909175020196909375028093740212
:1006200081E0089580E00895EF92FF920F931F9369
:10063000CF93DF93F82E192FE62E042F81E0860F3B
:10064000880F0E94E60283E00E94E602CF2DD12FA0
:10065000EC0EFD2EF11CCE15DF05B9F007FF13C01F
:10066000FE0184910E94E602182F80E00E94E602BB
:10067000812321968111EFCFDF91CF911F910F91AF
:10068000FF90EF9008958881EDCF81E0F5CFDF9264
:10069000EF92FF920F931F93CF93DF93D82E8A018F
:1006A000EB017B01E40EF51ECE15DF0559F0D7FEF8
:1006B00012C0FE0184910E94E60221968111F4CFBE
:1006C0000FEF1FEFC801DF91CF911F910F91FF90A6
:1006D000EF90DF9008958881EECF0F931F93CF9313
:1006E000DF931F92CDB7DEB782E0898342E450E00A
:1006F0006CEA70E080E80E9447030E94F301DC018D
:1007000012960D911C910115110589F0D801ED91FA
:10071000FC910280F381E02DBE016F5F7F4FC80125
:10072000099597FD04C0F80100851185ECCF8981FA
:100730000F90DF91CF911F910F910895615030F08C
:100740002091F100FC0120830196F8CF289884E6DF
:10075000809399020895AF92BF92CF92DF92EF9269
:10076000FF920F931F93CF93DF936C017B018B015B
:10077000040F151FEB015E01AE18BF08C017D107AB
:1007800059F06991D601ED91FC910190F081E02D35
:10079000C6010995892B79F7C501DF91CF911F918A
:1007A0000F91FF90EF90DF90CF90BF90AF900895A2
:1007B000FC01538D448D252F30E0842F90E0821B67
:1007C000930B541710F00396089501970895FC01B8
:1007D000918D828D981779F0A28DAE0FBF2FB11D2C
:1007E0005D962C91828D8F5F63E10E940C11928F38
:1007F000822F90E008958FEF9FEF08958F929F9240
:10080000AF92BF92CF92DF92EF92FF920F931F931E
:10081000CF93DF937C018C01060F171FEC016E0153
:10082000CE18DF080C171D0759F10E94D8026093FB
:10083000A3027093A4028093A5029093A6028BE971
:1008400092E00E94E70397FF29C00E94D80280909F
:10085000A3029090A402A090A502B090A6026819ED
:1008600079098A099B0980909F029090A002A0902C
:10087000A102B090A202681579058A059B05F8F2DD
:10088000C601DF91CF911F910F91FF90EF90DF9004
:10089000CF90BF90AF909F908F9008958993BFCFD6
:1008A000FC01918D828D981731F0828DE80FF11D3A
:1008B000858D90E008958FEF9FEF0895FC01918D55
:1008C000228D892F90E04396821B910963E170E0AD
:1008D0000E94181108958BE992E00E945E0421E0C5
:1008E000892B09F420E0822F089580E090E0892B85
:1008F00029F00E946B0481110C9400000895FC0102
:10090000A48DA80FB92FB11DD0962C91848D90E0A5
:10091000019683709927848FA689B7892C93A08923
:10092000B1898C9182748C93938D848D981306C0B9
:100930000288F389E02D80818F7D80830895EF9276
:10094000FF920F931F93CF93DF93EC0181E0888F89
:100950009B8D8C8D981319C0E889F989808185FF5A
:1009600014C09FB7F894EE89FF896083E889F989FC
:100970008081827480839FBF81E090E0DF91CF917E
:100980001F910F91FF90EF900895F62E0B8D10E0C0
:100990000F5F1F4F03701127E02E8C8D8E110CC03E
:1009A0000FB607FCFACFE889F989808185FFF5CF7A
:1009B000CE010E947F04F1CFEB8DEC0FFD2FF11DD6
:1009C000F0AA9FB7F8940B8FEA89FB898081806237
:1009D000D1CFCF93DF93EC01888D8823B9F0AA891A
:1009E000BB89E889F9898C9185FD03C0808186FDEA
:1009F0000DC00FB607FCF7CF8C9185FFF2CF808139
:100A000085FFEDCFCE010E947F04E9CFDF91CF912A
:100A100008958F929F92AF92BF92CF92DF92EF9202
:100A2000FF920F931F93CF93DF936C017B018A0199
:100A300080910B01882309F45CC080919A0288237D
:100A400009F457C08091780280FF05C08091E000D2
:100A500082608093E000E801B12C8AEFA82E93E039
:100A6000892E2AE3922E209711F4BB20D9F10E94FF
:100A7000E20181110AC0AA94AA20D9F161E070E0D4
:100A800080E090E00E94A602EECF8C171D0611F0C8
:100A90000CF08C2F9FB7F8948092E9002091E80029
:100AA00025FD02C09FBFDFCF282F30E0C21BD30B34
:100AB000F701815020F041914093F100FACFE20E0E
:100AC000F31EBB2021F09092E800B12CEBCF809177
:100AD000E80085FDE7CF9092E800BB24B39420970F
:100AE00009F3F3CF5D9884E6809377021016110620
:100AF0003CF081E090E0F6019383828310E000E017
:100B0000C801DF91CF911F910F91FF90EF90DF907F
:100B1000CF90BF90AF909F908F900895CF93DF9329
:100B20001F92CDB7DEB76983DC01ED91FC910280A5
:100B3000F381E02D41E050E0BE016F5F7F4F0995EA
:100B40000F90DF91CF9108950F931F93CF93DF9371
:100B50008C01D0E0C0E0F801EC0FFD1F649166232A
:100B600041F08FEC92E00E948E05892B11F02196C6
:100B7000F2CFCE01DF91CF911F910F9108950E9486
:100B8000E20190E00895CF93DF931F92CDB7DEB7D7
:100B9000FC018485958597FD08C02FEF3FEF3587D1
:100BA00024870F90DF91CF910895CE0101960E9486
:100BB000B801019719F4898190E0F3CF8FEF9FEF8F
:100BC000F0CF0F931F93CF93DF931F92CDB7DEB774
:100BD0008C01FC018485958597FF0BC0CE010196A1
:100BE0000E94B801019771F4898190E0F80195871E
:100BF0008487F801848595850F90DF91CF911F91AF
:100C00000F9108958FEF9FEFF1CFFC0184859585BB
:100C100097FD0BC09FB7F89482E08093E900809124
:100C2000F2009FBF90E0019608959FB7F89482E08C
:100C30008093E9008091F2009FBF90E00895FB014E
:100C4000908198279083682F8BE992E00C949F0401
:100C5000EF92FF920F931F93CF93DF937A01EC01F2
:100C60008C01060F111DC017D10729F0B70189911A
:100C70000E941F06F8CFDF91CF911F910F91FF9037
:100C8000EF900895FF920F931F93CF93DF931F92DE
:100C9000CDB7DEB78B01F42E9FEF9983BE016F5F56
:100CA0007F4F0E941F06AE014F5F5F4F6F2DC8013F
:100CB0000E94280669818BE992E00E949F048BE9DB
:100CC00092E00E94E9040F90DF91CF911F910F9164
:100CD000FF90089590912903492F50E0FA01EE0FFB
:100CE000FF1FE15EFC4F618972896115710561F139
:100CF00080912F03882321F048E088ED0C94420670
:100D000081E3849F9001859F300D11242D5E3E4F1D
:100D1000F901E75AFF4F8081E1E0F0E001C0EE0FFA
:100D20008A95EAF7285A3F4FD9014C914E9F402DA2
:100D30001124242F80E0223018F02695885FFBCF05
:100D40009770906C892BDACF0895FC0101900020F8
:100D5000E9F73197AF01481B590BBC018FEC92E0CA
:100D60000C940905CF93DF930E94A405EC0189E25E
:100D700092E00E94A5068C0F9D1FDF91CF910895F0
:100D80008F929F92AF92BF920F931F93CF93DF9357
:100D9000CDB7DEB7A1970FB6F894DEBF0FBECDBFBB
:100DA00019A2423008F44AE08E010F5D1F4F842ED5
:100DB000912CB12CA12CA50194010E942C11E62F9D
:100DC000B901CA01EA30F4F4E05DD801EE938D0177
:100DD000232B242B252B79F790E080E0109719F036
:100DE000CD010E94A506A1960FB6F894DEBF0FBEF6
:100DF000CDBFDF91CF911F910F91BF90AF909F908A
:100E00008F900895E95CE1CFCF93DF930E94A50610
:100E1000EC0189E292E00E94A5068C0F9D1FDF91F4
:100E2000CF910895CF93DF93682F70E090E080E03A
:100E30004AE00E94C006EC0189E292E00E94A50609
:100E40008C0F9D1FDF91CF9108951F920F920FB6C7
:100E50000F9211242F933F938F939F93AF93BF9340
:100E60008091850290918602A0918702B0918802BC
:100E70003091840223E0230F2D3758F50196A11DF0
:100E8000B11D209384028093850290938602A093E3
:100E90008702B09388028091890290918A02A09182
:100EA0008B02B0918C020196A11DB11D8093890225
:100EB00090938A02A0938B02B0938C02BF91AF9162
:100EC0009F918F913F912F910F900FBE0F901F9088
:100ED000189526E8230F0296A11DB11DD2CF1F92AF
:100EE0000F920FB60F9211242F933F934F935F935E
:100EF0006F937F938F939F93AF93BF93CF93EF9312
:100F0000FF93C091E1008091E100837F8093E10035
:100F1000C3FF0FC01092E90081E08093EB001092B4
:100F2000EC0082E38093ED0010929A0288E08093B7
:100F3000F000C2FF1AC00E94AD01809177028823A1
:100F400041F080917702815080937702811101C036
:100F50005D9A80919902882341F080919902815095
:100F600080939902811101C0289AC4FF23C0809107
:100F7000E2008E7E81608093E2008091E1008F7EAE
:100F80008093E100809178028E7E80618093780268
:100F9000FF91EF91CF91BF91AF919F918F917F91F1
:100FA0006F915F914F913F912F910F900FBE0F90D6
:100FB0001F901895C0FFECCF8091E2008E7E80617B
:100FC0008093E2008091E1008E7E8093E100809129
:100FD00078028E7E8160DACF1F920F920FB60F9249
:100FE0001124CF92DF92EF92FF920F931F932F93D2
:100FF0003F934F935F936F937F938F939F93AF93A1
:10100000BF93EF93FF93CF93DF93CDB7DEB76C978A
:10101000DEBFCDBF1092E9008091E80083FF25C0BC
:1010200068E0CE0145960E949E0382EF8093E8001F
:101030008D8987FF39C09091E80090FFFCCF982FF1
:10104000907609F034C19E894F89588D2F89F88C8C
:10105000911131C0803861F5809179028093F1005F
:101060001092F1008EEF8093E8006C960FB6F89422
:10107000DEBF0FBECDBFDF91CF91FF91EF91BF914A
:10108000AF919F918F917F916F915F914F913F9120
:101090002F911F910F91FF90EF90DF90CF900F90C5
:1010A0000FBE0F901F9018959EEF9093E800C7CF4A
:1010B0001092F100D5CF913059F48111D3CF413046
:1010C000510581F6809179028D7F80937902CACF94
:1010D000933049F48111C6CF4130510519F6809102
:1010E00079028260F2CF953041F48091E80080FF70
:1010F000FCCF20682093E300B5CF963009F0A9C05B
:101100000B8D1C8D22E01092E90010927502109256
:101110007402F2122EC010927302109272020E9498
:101120006D031F8299E09983FA8291E09E8390EA91
:1011300098879AEF99872091740230917502275F02
:101140003F4F3C832B838D831092E90010927502F0
:1011500010927402109373020093720249E050E0FF
:10116000BE016F5F7F4F80E00E9447030E946D03C6
:1011700079CF10937302009372020E94F301DC0195
:1011800012960D911C910115110509F451C1D80158
:10119000ED91FC910480F581E02DBE016B5E7F4FE7
:1011A000C8010995009709F03EC1F8010085118535
:1011B000EACFF3E0FF120EC08F89882309F440C004
:1011C000823061F440E862E18DE091E00E94140316
:1011D000811148CF81E28093EB0047CF813029F421
:1011E00040E868E084E091E0F1CF833099F70E9415
:1011F000F301DC011296ED90FC908E010F5F1F4F02
:101200006801E114F10479F0D701ED91FC910680B9
:10121000F781E02DB801C7010995080F111DF701ED
:10122000E084F184EECFD8011C92F60101900020F9
:10123000E9F73197BF016C197D0940E0C601C6CFBF
:101240006EEE70E0FB01449150E080E80E9447039D
:1012500009CF973009F4BECF983021F481E0809314
:10126000F10000CF993009F0FDCE837009F0B2CFC4
:10127000EDE0F1E081E031E096E32191222371F08D
:101280008093E9003093EB00DF0111972C912093BC
:10129000EC009093ED008F5F873079F78EE78093B5
:1012A000EA001092EA008F8980939A02DBCE8B8D40
:1012B0009C8D1092E9001092750210927402909326
:1012C000730280937202898D811192C08E899D89EB
:1012D000913A49F4813209F07DCF47E050E064E073
:1012E00071E080E0B3CF913209F074CF833269F4BA
:1012F0008F89988DB0E0A0E0809300019093010168
:10130000A0930201B0930301ADCE803269F48091C5
:10131000E80082FFFCCF67E084E091E00E949E033A
:101320008BEF8093E8009ECE823209F09BCE8F89AE
:1013300080930B01EEEFFFE7859194918B3F9C4DDD
:1013400051F1E0E0F8E08091040190910501A09155
:101350000601B0910701803B9440A105B105F1F46D
:1013600080910B0180FD1AC0EE3F8AE0F80789F5F5
:1013700087E797E79183808380916000809376026E
:1013800088E19BE00FB6F894A895809360000FBEAB
:101390009093600067CEEEEFFAE0D5CF8081918127
:1013A0008737974709F05ECEA895809160008861E5
:1013B000809360008091760280936000EE3F2AE087
:1013C000F20789F08091FE0A9091FF0A9183808351
:1013D00049CE808191818737980751F29093FF0A17
:1013E0008093FE0AC5CF1092FF0A1092FE0A3ACEF1
:1013F0000E94F301DC0112960D911C91011511055B
:1014000009F4E8CED801ED91FC910190F081E02D36
:10141000BE016B5E7F4FC8010995811123CEF80193
:1014200000851185EBCF181619060CF41BCED2CE11
:10143000F1E0FF12BECE62EF70E004CF1F920F9278
:101440000FB60F9211242F933F934F935F936F9397
:101450007F938F939F93AF93BF93EF93FF938BE90A
:1014600092E00E947F04FF91EF91BF91AF919F9115
:101470008F917F916F915F914F913F912F910F903D
:101480000FBE0F901F9018951F920F920FB60F92DC
:1014900011242F935F936F937F938F939F93AF93B9
:1014A000BF93EF93FF93E091AB02F091AC02808188
:1014B000E091B102F091B20282FD24C020818091BE
:1014C000B40290E0019663E170E00E9418119091DF
:1014D000B502981741F0E091B402F0E0E556FD4FF7
:1014E000258F8093B402FF91EF91BF91AF919F91AF
:1014F0008F917F916F915F912F910F900FBE0F9001
:101500001F9018958081EFCFEBE9F2E013821282F1
:1015100088EE93E0A0E0B0E084839583A683B78350
:1015200029E032E0318320832DEC30E035872487B9
:101530002CEC30E03787268728EC30E0318B208B8D
:1015400029EC30E0338B228B2AEC30E0358B248B76
:101550002EEC30E0378B268B118E128E138E148E6C
:10156000EFECF2E01382128284839583A683B78323
:101570008BE192E0918380838FEF9FEF9587848743
:10158000EFE1F3E0108281E08183158216821782F9
:10159000108611861286138614861586168617867F
:1015A000108A88E0E0E3F3E0DF01982F1D929A951E
:1015B000E9F7E8E3F3E0DF011D928A95E9F7089582
:1015C000CF93DF931F92CDB7DEB7789484B5826056
:1015D00084BD84B5816084BD85B5826085BD85B5D7
:1015E000816085BD80916E00816080936E00109255
:1015F00081008091810082608093810080918100D0
:101600008160809381008091800081608093800060
:10161000809191008260809391008091910081601F
:1016200080939100809190008160809390008091E0
:10163000C10084608093C1008091C100826080936A
:10164000C1008091C10081608093C1008091C3007E
:1016500081608093C3008091C00082608093C0004D
:101660008091C20081608093C20080917A00846082
:1016700080937A0080917A00826080937A008091D2
:101680007A00816080937A0080917A0080688093EC
:101690007A0010929A021092790210927802809148
:1016A000D70081608093D70080EA8093D80089B505
:1016B000806189BD89B5826089BD09B400FEFDCF16
:1016C00061E070E080E090E00E94A6028091D80086
:1016D0008F7C80618093D8008091E000807F809330
:1016E000E0008091E1008E7E8093E1008DE08093A8
:1016F000E200559A209A8FEF9FEF9093DC0280933F
:10170000DB0210910B016AE070E080E090E00E9443
:10171000A6021123B1F38EE792E0909331038093F8
:1017200030038AE792E09093330380933203109260
:101730007B02EE24E394F12C2FE0822E912C77246F
:10174000739482E0682E0E94D8020091800210916A
:1017500081022091820230918302601B710B820B07
:10176000930B683E734081059105F0F00E94D8020A
:10177000609380027093810280938202909383022F
:1017800080917E02833009F093C339E030937E026A
:1017900043ED40937F0280917C0290917D028160B5
:1017A00090937D0280937C02809128038111A0C3D5
:1017B0008CE292E00E9404078BE992E00E94E90427
:1017C000E091AD02F091AE0280818F7E8083E09146
:1017D000AD02F091AE028081877F8083E091AD02FF
:1017E000F091AE0280818F778083E091AD02F0911D
:1017F000AE0280818F7D80838091B5028093B40298
:101800008091200390E0FC01EA53FD4F2491FC01FC
:10181000E955FD4FE491EE23A1F08E2F90E0880F63
:10182000991FFC01E159FD4FA591B491FC01E756C8
:10183000FD4F859194918FB7F894EC912E2B2C93BA
:101840008FBF60E0809120030E94530280911F03AC
:1018500090E0FC01EA53FD4F2491FC01E955FD4F56
:10186000E491EE23C9F08E2F90E0880F991FFC01C0
:10187000E159FD4FA591B491FC01E756FD4F8591CB
:1018800094914FB7F8943C91209532233C93DC011E
:10189000EC912E232C934FBF0E94D8021B012C01E8
:1018A00020911F0330E0F901EB51FD4F8491F901C4
:1018B000EA53FD4F0491F901E955FD4F14911111BF
:1018C000FEC20E94D8021B012C010E94D80262199C
:1018D000730984099509653671058105910500F341
:1018E00061E0809120030E94530264E670E080E092
:1018F00090E00E94A60260E0809120030E945302C3
:1019000064E670E080E090E00E94A60288E392E046
:101910000E940407E091AB02F091AC026082E0917A
:10192000A702F091A802B3E0B083E091A902F09180
:10193000AA02A0E4AA2EA0821092B302E091AF0204
:10194000F091B00286E08083E091AD02F091AE02AA
:10195000808180618083E091AD02F091AE02808150
:1019600088608083E091AD02F091AE028081806852
:101970008083E091AD02F091AE0280818F7D808303
:101980008FEF8983BE016F5F7F4F80E40E941F0647
:10199000BE016F5F7F4F82E20E941F0669818BE963
:1019A00092E00E949F046AE070E080E090E00E9474
:1019B000A60290E080E010E09401082E02C0369567
:1019C00027950A94E2F720FD1F5F0196803191056B
:1019D00099F78FEF8983BE016F5F7F4F81E50E948A
:1019E0001F06BE016F5F7F4F83E00E941F06812F9D
:1019F000193008F088E0BE016F5F7F4F81500E9470
:101A00001F06BE016F5F7F4F83E00E941F06BE016D
:101A10006F5F7F4F8FEF810F0E941F0669818BE9F7
:101A200092E00E949F046AE070E080E090E00E94F3
:101A3000A6021FEF1983BE016F5F7F4F82E50E94F0
:101A40001F06BE016F5F7F4F80E00E941F06BE0130
:101A50006F5F7F4F82EC0E941F06BE016F5F7F4F5A
:101A600081E00E941F06BE016F5F7F4F80E00E94F1
:101A70001F0669818BE992E00E949F046AE070E092
:101A800080E090E00E94A6021983BE016F5F7F4F45
:101A90008FE50E941F06BE016F5F7F4F80E00E94AE
:101AA0001F06BE016F5F7F4F80E00E941F06BE01D0
:101AB0006F5F7F4F80E00E941F06BE016F5F7F4F08
:101AC00080E10E941F06BE016F5F7F4F80E00E9491
:101AD0001F06BE016F5F7F4F80E00E941F06BE01A0
:101AE0006F5F7F4F80E00E941F06BE016F5F7F4FD8
:101AF00080E10E941F0669818BE992E00E949F04A9
:101B00008BE992E00E94E9046AE070E080E090E0F6
:101B10000E94A60204ED11E0F3E0DF2ECC24CA946B
:101B2000C982BE016F5F7F4F8D2D806A0E941F06A4
:101B3000BE016F5F7F4F80E00E941F06AE014F5FC6
:101B40005F4F6CE0C8010E942806BE016F5F7F4FA7
:101B500080E00E941F06BE016F5F7F4F80E00E9401
:101B60001F06BE016F5F7F4F80E00E941F06BE010F
:101B70006F5F7F4F80E00E941F0669818BE992E0D2
:101B80000E949F046AE070E080E090E00E94A6025C
:101B90002D2D2869522EC982BE016F5F7F4F822F83
:101BA0000E941F06BE016F5F7F4F81E00E941F06EB
:101BB000AE014F5F5F4F64E0C8010C960E9428069B
:101BC000AE014F5F5F4F64E0C80140960E94280657
:101BD00069818BE992E00E949F046AE070E080E0F6
:101BE00090E00E94A602C982BE016F5F7F4F852DE3
:101BF0000E941F06BE016F5F7F4F82E00E941F069A
:101C0000AE014F5F5F4F64E0C80144960E94280612
:101C1000AE014F5F5F4F64E0C80148960E942806FE
:101C200069818BE992E00E949F046AE070E080E0A5
:101C300090E00E94A602C982BE016F5F7F4F852D92
:101C40000E941F06BE016F5F7F4F83E00E941F0648
:101C5000AE014F5F5F4F64E0C8014C960E942806BA
:101C6000AE014F5F5F4F64E0C80180960E94280676
:101C700069818BE992E00E949F046AE070E080E055
:101C800090E00E94A6023D2D3069532EC982BE010C
:101C90006F5F7F4F832F0E941F06BE016F5F7F4FD4
:101CA00084E00E941F06AE014F5F5F4F64E0C801F1
:101CB00084960E94280669818BE992E00E949F0425
:101CC0006AE070E080E090E00E94A602C982BE0156
:101CD0006F5F7F4F8D2D88680E941F06BE016F5F6A
:101CE0007F4F85E00E941F06BE016F5F7F4FD801C6
:101CF00098968C910E941F06BE016F5F7F4FF8017E
:101D000081A50E941F0669818BE992E00E949F04D1
:101D10006AE070E080E090E00E94A602C982BE0105
:101D20006F5F7F4F852D0E941F06BE016F5F7F4F43
:101D300080E80E941F06BE016F5F7F4FD8019A9610
:101D40008C910E941F06BE016F5F7F4FF80183A533
:101D50000E941F06BE016F5F7F4FD8019C968C9139
:101D60000E941F06BE016F5F7F4FF80185A50E948C
:101D70001F0669818BE992E00E949F048BE992E043
:101D80000E94E9046AE070E080E090E00E94A60210
:101D9000DA9401531109FFEFDF12C2CE64E08BE940
:101DA00092E00E949F046AE070E080E090E00E9470
:101DB000A6020E94D8021B012C016C015B01D60116
:101DC000C50182199309A409B509803D9740A10571
:101DD000B10508F04FC08BE992E00E945E0418162E
:101DE00019060CF07CC08BE992E00E94E703843076
:101DF00009F075C0E091AB02F091AC026082E09115
:101E0000A702F091A8021082E091A902F091AA0223
:101E100080E180831092B302E091AF02F091B002B2
:101E200086E08083E091AD02F091AE028081806116
:101E30008083E091AD02F091AE0280818860808362
:101E4000E091AD02F091AE02808180688083E091E4
:101E5000AD02F091AE0280818F7D80837092280365
:101E60000E94D80260932403709325038093260375
:101E70009093270380912803882309F4C6C1809199
:101E80007B02811106C08DE892E00E94B20670923A
:101E90007B020E94AD01E0E0F0E0EF2B09F453CCAF
:101EA0000E946B04882309F44ACC0E94000047CCAE
:101EB00053E050937E028EE180937F026CCC8111BF
:101EC0000E940702E12FF0E0EE0FFF1FEF59FD4FD8
:101ED000A591B491EC910E2309F4F3CCF6CC0E94B9
:101EE000D8025B016C018BE992E00E94E90467CFA4
:101EF00020917C0230917D0280912903A70102C0CC
:101F0000440F551F8A95E2F7CA0182239323892B38
:101F1000D1F10E94D80200912B0310912C03209143
:101F20002D0330912E035B016C01A01AB10AC20A85
:101F3000D30A96018501053011052105310518F1F7
:101F400060932B0370932C0380932D0390932E03A7
:101F50000E946A0620917C0230917D0280912903C3
:101F6000670102C0CC0CDD1C8A95E2F7C6018095A2
:101F700090958223932390937D0280937C028DE43D
:101F800092E00E9404078BE992E00E945E04892B94
:101F9000C9F08BE992E00E94E703823009F042C069
:101FA0000E94D80260932403709325038093260334
:101FB0009093270341E06AE273E086E40E944206C0
:101FC0000E946A060E94D802009124031091250302
:101FD0002091260330912703601B710B820B930B1A
:101FE000693C71058105910508F444CF80E291E0D8
:101FF0000E94A4050E94D802009124031091250399
:102000002091260330912703601B710B820B930BE9
:102010004AE00E94C00689E292E00E94A506109262
:10202000280328CF833419F562E070E081E293E061
:102030000E94FE03029728F489E492E00E94A4051E
:10204000C1CF80912103809329038BE392E00E940A
:10205000A405809129030E941207809129038830EA
:1020600020F480E080932A03ADCF88E0FBCF863454
:1020700009F06FC063E070E081E293E00E94FE032C
:10208000039708F49FCF20912303922F977080919C
:102090002103592E580E652D70E0CB01880F991F32
:1020A000AC01415E5C4F6A01DA0151968D919C91C1
:1020B000009709F487CFB1E3B69FA001B79F500DF9
:1020C00011244D5E5E4FFA01E75AFF4F3081B70190
:1020D00001C0660F3A95EAF7485A5F4FFA0140810E
:1020E000469F402D112430E053E0359527955A95B1
:1020F000E1F727703327870101C0000F2A95EAF71F
:102100000E5F0150110B4017110609F05BCF4423FD
:1021100009F458CFB8010E94FE038017910709F017
:1021200051CF88E192E00E94A405852D0E941207FC
:102130008CEF91E00E94A405809129030E94120770
:10214000D6015996ED91FC91309709F43BCF099552
:1021500039CF8C3419F589EC91E00E94B20663E026
:1021600070E081E293E00E94FE03039728F481EB84
:1021700091E00E94B20626CF80912303833919F0A3
:102180008AE991E0F6CF10922F03198241E0BE0157
:102190006F5F7F4F84E40E94420614CF8C3509F0B4
:1021A00011CF8FE691E00E94B20670922F036CE58A
:1021B0008BE992E00E949F0419E00E94D8021B0163
:1021C0002C018BE992E00E945E04892B71F40E943D
:1021D000D80262197309840995096536710581056C
:1021E000910578F38DE491E0C4CF8BE992E00E94F1
:1021F000E703682F8BE992E00E949F041150E9F6F3
:102200008BE992E00E94E904DDCE8DE792E00E9426
:10221000B20610927B023DCE991B79E004C0991F53
:10222000961708F0961B881F7A95C9F78095089530
:10223000AA1BBB1B51E107C0AA1FBB1FA617B707EC
:1022400010F0A61BB70B881F991F5A95A9F7809508
:102250009095BC01CD010895A1E21A2EAA1BBB1BCB
:10226000FD010DC0AA1FBB1FEE1FFF1FA217B30762
:10227000E407F50720F0A21BB30BE40BF50B661F78
:10228000771F881F991F1A9469F76095709580953C
:1022900090959B01AC01BD01CF010895EE0FFF1F8A
:0C22A0000590F491E02D0994F894FFCF14
:1022AC00FFFFFFFF00E100000000000000C1808183
:1022BC00000000220F0007000000000000000000DA
:1022CC000000000000000000000000000000000002
:1022DC0000000000000000000001000000010000F0
:1022EC00004C5046322D414E474C45000000003406
:1022FC00C2000034420000C8C20000C842000034D2
:10230C00C2000034424445470010000200030000A4
:10231C0000004C5046322D54494C54000000000033
:10232C00000000002041000000000000C842000036
:10233C00000000002041444952000400010002004A
:10234C000000004C5046322D4352415348000000CF
:10235C000000000000C842000000000000C842005D
:10236C000000000000C842434E540010000300035C
:10237C00000000004C5046322D43414C0000000040
:10238C00000034C2000034420000C8C20000C84241
:10239C00000034C20000344243414C0010000300E2
:1023AC000300000000000000009F04AB03D803E909
:1023BC00045E04E7035004000000008E050905BF0D
:1023CC0005E4020506C305E1050D0A00494E495412
:1023DC002053454E534F52005374617274696E67AB
:1023EC00496E697453657175656E63650076616CD1
:1023FC00756573206368616E6765642C2073656E08
:10240C0064696E67206461746120746F2068756202
:02241C000000BE
:00000001FF
