:100000000C94EC000C9415010C9415010C94150142
:100010000C9415010C9415010C9415010C94150108
:100020000C9415010C9415010C9415010C941501F8
:100030000C9415010C9415010C9415010C941501E8
:100040000C9415010C94EF040C94E8040C94F60441
:100050000C9415010C9415010C9415010C941501C8
:100060000C9415010C94B8040C94DB040C94D40487
:100070000C94E2040C941501446973636F6E6E6511
:1000800063743B20546F6F206D7563682074696DD5
:10009000652073696E6365206C617374204E414303
:1000A0004B202D2000696E636F6D706C6574652048
:1000B00030783543206D65737361676520287469F6
:1000C0006D656F75742900436F6D626F206D6F648D
:1000D00065207265717565737420726563656976F4
:1000E0006564202830783543206D657373616765DA
:1000F0002900537472756374757265206E6F742075
:10010000657870656374656400696E636F6D706CAB
:100110006574652030783443206D6573736167655D
:100120000044697361626C6520636F6D626F206D5E
:100130006F6465207265717565737420726563659F
:1001400069766564202830783443206D6573736167
:1001500067652900416674657220776520676F20A6
:10016000616761696E20696E206D6F64653A200079
:10017000686561646572203D3D20307834362043E7
:10018000616C6C6261636B20666F72206D6F646579
:100190003A20003C0941736B6564206D6F646520F3
:1001A00000696E636F6D706C6574652030783433F0
:1001B000206D657373616765004E6F7420436F6EC9
:1001C0006E6563746564202100436F6E6E656374B1
:1001D000656420210000700511241FBECFEFCDBF44
:1001E000DFE3DEBF8091400080934000811105C0B5
:1001F00098ED21E094BF209341008CBB24E3A0E064
:10020000B4E301C01D92A139B207E1F710E0CCEED2
:10021000D0E004C02197FE010E94E90ACB3ED1073D
:10022000C9F70E94B8050C94EF0A0C9400002FB790
:10023000F89460910A3470910B3480910C34909151
:100240000D342FBF08959FB7F894E0919A0AF0916A
:100250009B0A8091960A20910A3430910B34409188
:100260000C3450910D349FBF80FF08C0CF01882708
:10027000892B21F42F5F3F4F4F4F5F4F0F01169493
:1002800007941694079416940794F0011694079413
:1002900016940794E019F109169407940694102C0B
:1002A00016941694011816941694010C1124E00D5E
:1002B000F11DA8EEB3E00E94AD0A6E0F7F1F811DF5
:1002C000911D0895CF92DF92EF92FF92CF93DF932B
:1002D0006B017C010E942301EB010E9423016C1B36
:1002E0007D0B683E7340A0F0C114D104E104F10419
:1002F00039F4DF91CF91FF90EF90DF90CF90089588
:1003000081E0C81AD108E108F108C851DC4FE5CFF7
:10031000C114D104E104F10401F7EBCFAF92BF9215
:10032000CF92DF92EF92FF920F931F93CF93DF93C1
:100330006C017B018B01040F151FEB015E01AE18F0
:10034000BF08C017D10759F06991D601ED91FC9112
:100350000190F081E02DC6010995892B79F7C5013F
:10036000DF91CF911F910F91FF90EF90DF90CF9091
:10037000BF90AF900895FC0157854089252F30E04C
:10038000842F90E0821B930B541710F00F96089562
:1003900001970895FC0195858685981761F0A685DB
:1003A000AE0FBF2FB11D51968C9196859F5F9F70A8
:1003B000968790E008958FEF9FEF08954F925F9298
:1003C0006F927F928F929F92AF92BF92CF92DF9265
:1003D000EF92FF920F931F93CF93DF937C018C01D9
:1003E000060F171FEC016E01CE18DF080C171D0752
:1003F000E9F00E9417014B015C018FE394E30E9436
:10040000CA0197FF25C00E941701681979098A0956
:100410009B09409043345090443460904534709030
:100420004634641575058605970538F3C601DF91D6
:10043000CF911F910F91FF90EF90DF90CF90BF90E1
:10044000AF909F908F907F906F905F904F900895A6
:100450008993C9CFFC0195858685981731F08685EB
:10046000E80FF11D818990E008958FEF9FEF0895C7
:10047000FC0195852685892F90E04096821B910985
:100480008F7099270895FC010FB607FE04C0809174
:1004900011018823A9F0A085B18514968C91149739
:1004A00085FF0EC097858089981307C015968C919B
:1004B00015978F7D15968C930895E8940C940405F8
:1004C00008950F931F93CF93DF93EC018C85816088
:1004D0008C879F85888998130BC0E885F98584816E
:1004E00085FF06C08C8581FD0EC080E4848313C027
:1004F000062F1F851F5F1F708889811316C0CE01CC
:100500000E944302F9CF85818F77806490E49483C1
:10051000E885F9858583E885F985628381E090E047
:10052000DF91CF911F910F910895EF85EC0FFD2F73
:10053000F11D01A31F878C85E885F98581FF09C01E
:1005400085818F77806690E49483E885F98585833B
:10055000E5CF85818062FBCF0F931F93CF93DF930D
:100560008C01D0E0C0E0F801EC0FFD1F6491662320
:1005700041F08EE094E30E946102892B11F02196F4
:10058000F2CFCE01DF91CF911F910F910895CF93BC
:10059000DF93EC018C8580FF0CC0E885F9858581AF
:1005A00085FD03C0848186FD04C0CE010E94430204
:1005B000F4CFDF91CF910895FB019081982790832C
:1005C000682F8FE394E30C946102EF92FF920F93F4
:1005D0001F93CF93DF937A01EC018C01060F111D5D
:1005E000C017D10729F0B70189910E94DC02F8CF2A
:1005F000DF91CF911F910F91FF90EF900895FF929F
:100600000F931F93CF93DF931F92CDB7DEB78B016C
:10061000F42E9FEF9983BE016F5F7F4F0E94DC0233
:10062000AE014F5F5F4F6F2DC8010E94E5026981E7
:100630008FE394E30E9461028FE394E30E94C70278
:100640000F90DF91CF911F910F91FF90089590919E
:100650007A34492F50E0FA01EE0FFF1FE059FB4CAE
:10066000618972896115710561F1809180348823F7
:1006700021F048E088ED0C94FF0281E3849F900113
:10068000859F300D11242E5E3946F901E75AFF4F40
:100690008081E1E0F0E001C0EE0F8A95EAF7285A88
:1006A0003F4FD9014C914E9F402D1124242F80E0C3
:1006B000223018F02695885FFBCF9770906C892BBD
:1006C000DACF0895FC0101900020E9F73197AF01DE
:1006D000481B590BBC018EE094E30C948E01CF9320
:1006E000DF930E94AC02EC018EE197E90E94620365
:1006F0008C0F9D1FDF91CF9108958F929F92AF92A3
:10070000BF920F931F93CF93DF93CDB7DEB7A1971F
:10071000CDBFDEBF19A2423008F44AE08E010F5D62
:100720001F4F842E912CB12CA12CA50194010E9465
:10073000C70AE62FB901CA01EA30DCF4E05DD8014E
:10074000EE938D01232B242B252B79F790E080E06D
:10075000109719F0CD010E946203A196CDBFDEBFB4
:10076000DF91CF911F910F91BF90AF909F908F908D
:100770000895E95CE4CFCF93DF930E946203EC011C
:100780008EE197E90E9462038C0F9D1FDF91CF914C
:100790000895CF93DF93682F70E090E080E04AE007
:1007A0000E947D03EC018EE197E90E9462038C0FA9
:1007B0009D1FDF91CF910895CF93DF938C3008F088
:1007C00043C090E0EC01CA5FD94628812F3F09F46D
:1007D0003BC0AC0146505A46DA01EC91B0E2EB9FC7
:1007E000F0011124FC5F611132C026833081232384
:1007F000A1F49C0122513A46D9012C91309749F13C
:10080000283038F57096E20FF11D3FB7F89420813B
:10081000611122C0277F20833FBF8E519A46FC0181
:100820008081882389F0803179F48881DA019C9174
:100830009130A1F4853010F0880F82959091010AD3
:10084000809589238093010ADF91CF9108952583B4
:10085000CDCFF0E0E0E0D9CF2860DDCF880FEECF3C
:100860008C30F0F490E0FC01EA5FF94620812F3FE4
:10087000B9F0FC01E650FA46E08130E2E39FF00176
:100880001124FC5F60FF0DC0218382519A46DC0178
:100890008C91E80FF11D808961FF05C08860808B15
:1008A00008952283F2CF877FFACFCF92DF92EF9223
:1008B000FF921F93CF93DF93EC016A017B010E94AB
:1008C00043028C8580FF0CC0CE010E94C702E885E0
:1008D000F9851682158280EC84838E858D871C862F
:1008E00060E074EB84EC94E0A70196010E94C70AD3
:1008F0001FB7F894E885F985168283E087832087FF
:100900003187148680E8858380EC86839B85CA8541
:100910008091E2052CEFC11123EF8223292F30E0D3
:1009200040E0C11142E0B90102C0660F771F4A954D
:10093000E2F7862B8093E205933089F0C20FD32F24
:10094000D11DCC0FDD1FCC0FDD1FCC5FD84661E081
:1009500088810E94300462E089810E9430041FBFB8
:10096000DF91CF911F91FF90EF90DF90CF9008958E
:100970008F9381E08093960A8FB78F93EF93FF93C5
:10098000EAE0F4E380818F5F808381818F4F8183F0
:1009900082818F4F828383818F4F8383FF91EF9179
:1009A0008F918FBF8F911895EF93FF93F89AEEE098
:1009B000F4E30C94FC04EF93FF93F89AEEE0F4E375
:1009C0000C942A05EF93FF93EEE0F4E30C945705A3
:1009D000EF93FF93F898EFE3F4E30C94FC04EF93A8
:1009E000FF93F898EFE3F4E30C942A05EF93FF9359
:1009F000EFE3F4E30C9457052F932FB72F938F93C6
:100A00009F93AF93BF936894CF93DF9320E0C0850B
:100A1000D8E09089DF01A90FB21F91968C9120E454
:100A20002C838A839F5F9F708D812785291302C045
:100A30008F7D8D83908BDF91CF9116F00C946002A7
:100A4000BF91AF919F918F912F912FBF2F91FF91C8
:100A5000EF9118952F932FB72F933F938F939F93D9
:100A6000CF93DF93C085D8E0898198818674880F01
:100A70003485382B82FD0DC0C58581E08C0F8F70C9
:100A80002685281791F0CE0FDF2F20E0D21F998BFB
:100A900085873487DF91CF919F918F913F912F91DF
:100AA0002FBF2F91FF91EF9118953064F2CF8F9364
:100AB0008FB78F939F93CF93DF93C085D8E09D81AD
:100AC00088818C8187FDFCCF9F7B90689D83DF911F
:100AD000CF919F918F918FBF8F91FF91EF9118953B
:100AE000EEE0F4E31282138248EE53E060E070E03F
:100AF000448355836683778380E197E9808391837C
:100B000020E238E02087318721E022871386EFE357
:100B1000F4E3128213824483558366837783808350
:100B2000918380E098E08087918712861386E0E7C2
:100B3000F4E384E0808385E0818315821682178246
:100B400010861186128613861486158616861786D9
:100B5000108A88E0E1E8F4E3DF01982F1D929A956E
:100B6000E9F7E9E8F4E3DF011D928A95E9F70895D2
:100B7000CF93DF931F92CDB7DEB788ED90E084BFAF
:100B800090936100E0E0F6E083E081839FE090874E
:100B900091E2908390EA92839AE093871092E40521
:100BA00091E09093030A2EEF2093260A2093270AC0
:100BB0002BE02093000A2FE037E220939C0A309329
:100BC0009D0A9093950A1092910A8093900A7894C6
:100BD00040E052EC61E070E08EE094E30E94550446
:100BE00084E094E3809381349093823480E094E3B2
:100BF000809383349093843410920134CC24C39432
:100C0000D12CEE24E394B1E36B2E10EC712EFF2473
:100C1000FA940E9417010091063410910734209134
:100C2000083430910934601B710B820B930B683EC2
:100C3000734081059105F0F00E941701609306341E
:100C4000709307348093083490930934809104346E
:100C5000833009F0DFC249E04093043453ED5093F0
:100C60000534809102349091033481608093023482
:100C700090930334809179348111DCC281E297E949
:100C80000E94BB038FE394E30E94C702E0914734C4
:100C9000F091483416821582748280914D3480938D
:100CA0004C3410924B3461E0809171340E943004D6
:100CB00060E0809171340E94DC0360E080917034C8
:100CC0000E9430040E9417014B015C018091703436
:100CD000282F30E08C30B0F4F901EA5FF9468081CA
:100CE0008F3F81F026503A46D901EC91B0E2EB9F5C
:100CF000F0011124FC5F9085892321F40E941701E3
:100D00004B015C010E941701681979098A099B0946
:100D10006536710581059105C8F261E080917134F5
:100D20000E94DC0364E670E080E090E00E946201D3
:100D300060E0809171340E94DC0364E670E080E042
:100D400090E00E9462018DE297E90E94BB0340E6B9
:100D500059E060E070E08FE394E30E945504F9826B
:100D6000BE016F5F7F4F80E40E94DC02BE016F5FB7
:100D70007F4F82E20E94DC0269818FE394E30E944C
:100D800061026AE070E080E090E00E94620190E021
:100D900080E010E02FE030E0082E02C03695279565
:100DA0000A94E2F720FD1F5F01968031910591F7CB
:100DB000F982BE016F5F7F4F81E50E94DC02BE01B8
:100DC0006F5F7F4F83E00E94DC02812F193008F0B3
:100DD00088E0BE016F5F7F4F81500E94DC02BE0140
:100DE0006F5F7F4F83E00E94DC02BE016F5F7F4F29
:100DF0008FEF810F0E94DC0269818FE394E30E94F0
:100E000061026AE070E080E090E00E946201F98295
:100E1000BE016F5F7F4F82E50E94DC02BE016F5F03
:100E20007F4F80E00E94DC02BE016F5F7F4F82EC4B
:100E30000E94DC02BE016F5F7F4F81E00E94DC02F6
:100E4000BE016F5F7F4F80E00E94DC0269818FE30B
:100E500094E30E9461026AE070E080E090E00E940A
:100E60006201F982BE016F5F7F4F8FE50E94DC0255
:100E7000BE016F5F7F4F80E00E94DC02BE016F5FAA
:100E80007F4F80E00E94DC02BE016F5F7F4F80E0F9
:100E90000E94DC02BE016F5F7F4F80E10E94DC0296
:100EA000BE016F5F7F4F80E00E94DC02BE016F5F7A
:100EB0007F4F80E00E94DC02BE016F5F7F4F80E0C9
:100EC0000E94DC02BE016F5F7F4F80E10E94DC0266
:100ED00069818FE394E30E9461028FE394E30E94AF
:100EE000C7026AE070E080E090E00E94620103EDDA
:100EF00016E9F3E09F2EF982BE016F5F7F4F892DC7
:100F0000806A0E94DC02BE016F5F7F4F80E00E941A
:100F1000DC02AE014F5F5F4F6CE0C8010E94E5024A
:100F2000BE016F5F7F4F80E00E94DC02BE016F5FF9
:100F30007F4F80E00E94DC02BE016F5F7F4F80E048
:100F40000E94DC02BE016F5F7F4F80E00E94DC02E6
:100F500069818FE394E30E9461026AE070E080E0BF
:100F600090E00E946201E92DE8698E2EF982BE01AF
:100F70006F5F7F4F8E2F0E94DC02BE016F5F7F4F3D
:100F800081E00E94DC02AE014F5F5F4F64E0C80168
:100F90000C960E94E502AE014F5F5F4F64E0C8010E
:100FA00040960E94E50269818FE394E30E9461020A
:100FB0006AE070E080E090E00E946201F982BE0188
:100FC0006F5F7F4F882D0E94DC02BE016F5F7F4FF5
:100FD00082E00E94DC02AE014F5F5F4F64E0C80117
:100FE00044960E94E502AE014F5F5F4F64E0C80186
:100FF00048960E94E50269818FE394E30E946102B2
:101000006AE070E080E090E00E946201F982BE0137
:101010006F5F7F4F882D0E94DC02BE016F5F7F4FA4
:1010200083E00E94DC02AE014F5F5F4F64E0C801C5
:101030004C960E94E502AE014F5F5F4F64E0C8012D
:1010400080960E94E50269818FE394E30E94610229
:101050006AE070E080E090E00E946201F92DF069A2
:101060008F2EF982BE016F5F7F4F8F2F0E94DC02AF
:10107000BE016F5F7F4F84E00E94DC02AE014F5FD4
:101080005F4F64E0C80184960E94E50269818FE3A6
:1010900094E30E9461026AE070E080E090E00E94C8
:1010A0006201F982BE016F5F7F4F892D88680E94BF
:1010B000DC02BE016F5F7F4F85E00E94DC02BE0153
:1010C0006F5F7F4FD80198968C910E94DC02BE0121
:1010D0006F5F7F4FF80181A50E94DC0269818FE379
:1010E00094E30E9461026AE070E080E090E00E9478
:1010F0006201F982BE016F5F7F4F882D0E94DC0282
:10110000BE016F5F7F4F80E80E94DC02BE016F5F0F
:101110007F4FD8019A968C910E94DC02BE016F5FCE
:101120007F4FF80183A50E94DC02BE016F5F7F4FF5
:10113000D8019C968C910E94DC02BE016F5F7F4FAC
:10114000F80185A50E94DC0269818FE394E30E9487
:1011500061028FE394E30E94C7026AE070E080E0DE
:1011600090E00E9462019A9401531109FFEF9F12CF
:10117000C2CE64E08FE394E30E9461026AE070E013
:1011800080E090E00E9462010E9417011B012C0187
:101190005C014B0182189308A408B50820ED821663
:1011A00027E09206A104B10408F58FE394E30E94BE
:1011B000380218161906ACF58FE394E30E94CA01B1
:1011C000843079F540E052EC61E070E08FE394E325
:1011D0000E945504E09279340E941701609375349F
:1011E0007093763480937734909378348091793407
:1011F000882309F4ABC180910134811106C089ECC8
:1012000091E00E946F03E09201348EE094E30E942B
:10121000C702FFCC83E0809304349EE190930534B1
:1012200020CD0E9417014B015C018FE394E30E94E3
:10123000C702B0CF209102343091033480917A34C8
:10124000A60102C0440F551F8A95E2F7CA01822306
:101250009323892BD1F10E94170100917C341091C6
:101260007D3420917E3430917F344B015C01801AB3
:10127000910AA20AB30A95018401053011052105DE
:10128000310518F160937C3470937D3480937E3403
:1012900090937F340E9427032091023430910334CD
:1012A00080917A34560102C0AA0CBB1C8A95E2F7E1
:1012B000C501809590958223932380930234909367
:1012C000033482E497E90E94BB038FE394E30E9416
:1012D0003802892BC9F08FE394E30E94CA0182305F
:1012E00009F042C00E941701609375347093763400
:1012F000809377349093783441E06BE774E386E42D
:101300000E94FF020E9427030E941701009175347A
:10131000109176342091773430917834601B710BC2
:10132000820B930B693C71058105910508F45ECF32
:1013300088E790E00E94AC020E941701009175348A
:10134000109176342091773430917834601B710B92
:10135000820B930B4AE00E947D038EE197E90E9485
:1013600062031092793442CF833419F562E070E061
:1013700082E794E30E94DE01029728F481EA91E07B
:101380000E94AC02C1CF8091723480937A3483E999
:1013900091E00E94AC0280917A340E94C90380914E
:1013A0007A34883020F480E080937B34ADCF88E0BD
:1013B000FBCF863409F06EC063E070E082E794E30F
:1013C0000E94DE01039708F49FCF20917434922F7E
:1013D000977080917234592E580E652D70E0CB01B4
:1013E000880F991FAC0140595B4C4A01DA015196B4
:1013F0008D919C91009709F487CF669EA001679E0E
:10140000500D11244E5E5946FA01E75AFF4F3081C4
:10141000B60101C0660F3A95EAF7485A5F4FFA01E4
:101420004081469F402D112430E053E035952795AB
:101430005A95E1F727703327860101C0000F2A95DE
:10144000EAF70E5F0150110B4017110609F05CCF4F
:10145000442309F459CFB8010E94DE018017910797
:1014600009F052CF80E791E00E94AC02852D0E94E6
:10147000C90384E591E00E94AC0280917A340E9415
:10148000C903D4015996ED91FC91309709F43CCFF2
:1014900009953ACF8C3419F581E291E00E946F03EF
:1014A00063E070E082E794E30E94DE01039728F492
:1014B00089E091E00E946F0327CF809174348339D3
:1014C00019F082EF90E0F6CF10928034198241E05B
:1014D000BE016F5F7F4F84E40E94FF0215CF8C3501
:1014E00009F012CF87EC90E00E946F03E092803405
:1014F0006CE58FE394E30E94610219E00E941701FA
:101500001B012C018FE394E30E943802892B71F4B4
:101510000E941701621973098409950965367105DE
:101520008105910578F385EA90E0C4CF8FE394E3D9
:101530000E94CA01682F8FE394E30E946102115058
:10154000E9F68FE394E30E94C702DECE89EB91E0D7
:101550000E946F031092013458CE0E94B80AA59FD2
:10156000900DB49F900DA49F800D911D112408959E
:10157000A29FB001B39FC001A39F700D811D1124D4
:10158000911DB29F700D811D1124911D0895A1E23E
:101590001A2EAA1BBB1BFD010DC0AA1FBB1FEE1FED
:1015A000FF1FA217B307E407F50720F0A21BB30B38
:1015B000E40BF50B661F771F881F991F1A9469F7B4
:1015C00060957095809590959B01AC01BD01CF0110
:1015D0000895EE0FFF1F0590F491E02D0994F89403
:0215E000FFCF3B
:1015E2001010000000101010000010000405060783
:1015F20003020100010203000000000001010101D9
:1016020000000000102040800804020102040801CA
:10161200220F000700000000000000000000000090
:1016220000000000000000000000000000000000B8
:1016320000000000000001000000010000004C500A
:1016420046322D414E474C450000000034C2000096
:1016520034420000C8C20000C842000034C2000088
:101662003442444547001000020003000000004CD1
:101672005046322D54494C54000000000000000036
:10168200002041000000000000C8420000000000ED
:101692000020414449520004000100020000000001
:1016A2004C5046322D435241534800000000000086
:1016B2000000C842000000000000C8420000000014
:1016C2000000C842434E5400100003000300000013
:1016D200004C5046322D43414C00000000000034C3
:1016E200C2000034420000C8C20000C842000034F8
:1016F200C20000344243414C0010000300030000CA
:1017020000000504060708090A0000000000610243
:101712008E01BB01C7023802CA012A020D0A004922
:101722004E49542053454E534F52005374617274C4
:10173200696E67496E697453657175656E6365009C
:1017420076616C756573206368616E6765642C20D1
:1017520073656E64696E67206461746120746F20C2
:041762006875620044
:00000001FF
